:020000040000FA
:100000000C9462000C948A000C948A000C948A0070
:100010000C948A000C948A000C948A000C948A0038
:100020000C948A000C948A000C948A000C948A0028
:100030000C948A000C948A000C948A000C948A0018
:100040000C945F030C948A000C948A000C948A0030
:100050000C948A000C948A000C948A000C948A00F8
:100060000C948A000C948A000000000024002700F1
:100070002A0000000000250028002B0000000000DE
:1000800023002600290004040404040404040202DA
:100090000202020203030303030301020408102007
:1000A0004080010204081020010204081020000012
:1000B0000008000201000003040700000000000027
:1000C00000005C0511241FBECFEFD8E0DEBFCDBF1E
:1000D00011E0A0E0B1E0E6EBFBE002C005900D927C
:1000E000AE33B107D9F721E0AEE3B1E001C01D9214
:1000F000AE3CB207E1F710E0C2E6D0E004C02197C1
:10010000FE010E94D305C136D107C9F70E94A90399
:100110000C94D9050C94000096E0899FD00111241D
:10012000A95BBE4F90967C936E935F9791E09196FA
:100130009C939197E091B401F091B5019091B30136
:10014000992339F0309751F0811108C080916301F3
:100150000994309719F05C968C91FACF0895CF925C
:10016000DF92EF92FF920F931F9396E0899FF00129
:100170001124E95BFE4F11A2278D30A121303105FA
:1001800051F178F02230310509F451C023303105A6
:1001900009F452C01F910F91FF90EF90DF90CF9024
:1001A00008956623B9F361E070E00E948C002FB7D8
:1001B000F8948091430190914401A0914501B09140
:1001C00046012FBF80939F019093A001A093A101AE
:1001D000B093A201DFCF9FB7F894C0904301D090B5
:1001E0004401E0904501F09046019FBF00919F01BE
:1001F0001091A0012091A1013091A201C01AD10A51
:10020000E20AF30A0091B1011091B20130E020E05E
:100210000C151D052E053F0550F462E070E01F919E
:100220000F91FF90EF90DF90CF900C948C006111B4
:10023000B1CF63E070E0F3CF70E060E0F0CF8330E7
:1002400081F028F4813099F08230A9F00895873048
:10025000A9F08830C9F08430B1F4809180008F7D9E
:1002600003C0809180008F7780938000089584B5CB
:100270008F7784BD089584B58F7DFBCF8091B000CA
:100280008F778093B00008958091B0008F7DF9CF73
:10029000CF93DF93282F30E0F901E255FF4F84918F
:1002A000F901E656FF4FD491F901EA57FF4FC49187
:1002B000CC23A1F081110E941F01EC2FF0E0EE0F82
:1002C000FF1FE458FF4FA591B491EC91ED2381E01D
:1002D00090E009F480E0DF91CF91089580E090E014
:1002E000FACF1F93CF93DF93282F30E0F901E25527
:1002F000FF4F8491F901E656FF4FD491F901EA5777
:10030000FF4FC491CC23A9F0162F81110E941F0129
:10031000EC2FF0E0EE0FFF1FEE58FF4FA591B491C8
:100320008FB7F894EC91111108C0D095DE23DC93BF
:100330008FBFDF91CF911F910895DE2BF8CFCF9320
:10034000DF9390E0FC01E656FF4F24918A579F4FC0
:10035000FC0184918823C9F090E0880F991FFC016B
:10036000E859FF4FA591B491FC01EE58FF4FC5919C
:10037000D49161110DC09FB7F8948C912095822380
:100380008C938881282328839FBFDF91CF91089584
:10039000623051F49FB7F8943C91822F809583236B
:1003A0008C93E8812E2BEFCF8FB7F894EC912E2B06
:1003B0002C938FBFEACF862F642F0C949F01862F3A
:1003C000642F0C947101862F0C944801AF92BF9258
:1003D000CF92DF92EF92FF920F931F93CF93DF9311
:1003E0006C017B018B01040F151FEB015E01AE1840
:1003F000BF08C017D10759F06991D601ED91FC9162
:100400000190F081E02DC6010995892B79F7C5018E
:10041000DF91CF911F910F91FF90EF90DF90CF90E0
:10042000BF90AF900895089590E080E00895CF9335
:10043000DF93EC0160E08E810E94710161E08E81AA
:100440000E94710160E08E810E9471018BE891E051
:100450000197F1F7DF91CF910895CF92DF92EF925C
:10046000FF920F931F93CF93DF936C017C0187E082
:10047000E80EF11CD0E0C0E0062F10E0B8010C2E11
:1004800002C0759567950A94E2F76170F701819152
:100490007F010E9471012196C430D10579F7C60110
:1004A000DF91CF911F910F91FF90EF90DF90CF9050
:1004B0000C941702CF92DF92EF92FF920F931F934B
:1004C000CF93DF93EC01F62E642F8C810E94710193
:1004D0008D818F3F19F060E00E9471010F2D10E0B7
:1004E0008F8584FF25C06E0187E0C80ED11CF12CDA
:1004F000E12CB8010E2C02C0759567950A94E2F7BD
:100500006170F60181916F010E947101FFEFEF1A96
:10051000FF0A88E0E816F10461F7CE01DF91CF9180
:100520001F910F91FF90EF90DF90CF900C941702E6
:10053000B80184E0759567958A95E1F7CE010E9430
:100540002D026F2DCE01DF91CF911F910F91FF9062
:10055000EF90DF90CF900C942D0240E0682F86EB57
:1005600091E00C945A02CF93DF93813029F090915F
:10057000C50198609093C5018093C9011092CA018A
:1005800080E48093CB0180E18093CC0180E580936F
:10059000CD0161E08091BA010E949F018091BB0171
:1005A0008F3F19F061E00E949F0161E08091BC01E2
:1005B0000E949F01C6EBD1E09E01265B31408091F5
:1005C000C50184FD0BC084E090E02196281739070F
:1005D00044F461E08E810E949F01EECF88E090E0BC
:1005E000F4CF8BE39DE00197F1F760E08091BA01D1
:1005F0000E94710160E08091BC010E9471018091B4
:10060000BB018F3F19F060E00E9471018091C5012C
:1006100084FD39C063E086EB91E00E942D02CBE4BB
:10062000D6E4CE010197F1F763E086EB91E00E94FA
:100630002D022197F1F763E086EB91E00E942D02F5
:1006400083E592E00197F1F762E086EB91E00E948A
:100650002D028091C50180620E94AD0284E08093EA
:10066000C6018CE00E94AD0281E00E94AD028BE3E6
:100670009FE10197F1F782E08093C70186E0DF9167
:10068000CF910C94AD0280620E94AD028BE496E49F
:100690000197F1F78091C50180620E94AD0283E568
:1006A00092E00197F1F78091C50180620E94AD024E
:1006B000D0CF41E00E945A0281E090E008951F925D
:1006C0000F920FB60F9211242F933F938F939F9306
:1006D000AF93BF938091430190914401A091450154
:1006E000B09146013091420123E0230F2D3758F598
:1006F0000196A11DB11D2093420180934301909367
:100700004401A0934501B093460180913E01909130
:100710003F01A0914001B09141010196A11DB11D81
:1007200080933E0190933F01A0934001B09341011B
:10073000BF91AF919F918F913F912F910F900FBEDD
:100740000F901F90189526E8230F0296A11DB11D4A
:10075000D2CF789484B5826084BD84B5816084BD35
:1007600085B5826085BD85B5816085BD80916E004F
:10077000816080936E001092810080918100826080
:1007800080938100809181008160809381008091BD
:1007900080008160809380008091B10084608093AC
:1007A000B1008091B00081608093B00080917A00A8
:1007B000846080937A0080917A00826080937A00CE
:1007C00080917A00816080937A0080917A008068BD
:1007D00080937A001092C10084E00E94B3024CE042
:1007E00050E06EE271E086EB91E00E94E60142E0AB
:1007F00050E06BE371E086EB91E00E94E601412C52
:10080000512C3201439488248A94982C50E0C52EB0
:1008100050E0D52E51E05093B3018FB7F89440913A
:1008200043015091440160914501709146018FBF91
:100830008091A3019091A401A091A501B091A6017E
:10084000481B590B6A0B7B0B8091AF019091B00153
:10085000B0E0A0E084179507A607B70708F013C11A
:10086000C0E08091AD01C81760F4E091A901F0915A
:10087000AA01EC0FF11D62E080810E949F01CF5F11
:10088000F0CF312C8091AE01381608F05FC0032DF7
:1008900010E0E091AB01F091AC01E00FF11F61E0DD
:1008A00080810E949F01E091AB01F091AC01E00FCB
:1008B000F11F60E080810E947101D301C201032C0D
:1008C00004C0880F991FAA1FBB1F0A94D2F75C01AE
:1008D0007C01E094F094212C8091AD012816F8F46D
:1008E000C22DD0E0E091A901F091AA01EC0FFD1F0B
:1008F00080810E9448012496CC0FDD1FC95BDE4F2A
:10090000892B41F4888199818A299B29998388833D
:100910002394E2CF888199818E219F21F7CFE091A6
:10092000AB01F091AC01E00FF11F61E080810E940A
:1009300071018091AB019091AC01080F191F60E02B
:10094000F80180810E949F0133949CCF07E411E05D
:10095000E8018F8D98A1892B21F41C8E9E8E8D8E9F
:1009600019A22696F1E0C338DF0799F7B12C8091E0
:10097000AD01B81608F053C0A12CEB2CF12CEE0CF5
:10098000FF1CC701815B9E4F7C012091AE01A21626
:1009900008F043C0F701608171810A2C02C076958E
:1009A00067950A94E2F7B29E900111242A0D311D39
:1009B000E7E4F1E080E0458D568D2417350709F412
:1009C00079C08F5F36968A30B1F760FF24C0E7E4C4
:1009D000F1E090E080E0448D411118C0E091A70162
:1009E000F091A801E20FF31F408156E0589FF001FB
:1009F000599FF00D1124E95BFE4F448F368F258FF0
:100A000010A2178E61E00E94AF0005C001963696D5
:100A10008A30910501F7A394B8CFB394A8CF80E0B2
:100A2000F80191A19111892F0A5F1F4FC017D107BB
:100A3000B9F79FB7F89440914301509144016091F8
:100A40004501709146019FBF4093A3015093A401BB
:100A50006093A5017093A6018823A9F08091680195
:100A6000882389F08091660190916701019759F47C
:100A7000C0916301C1110AC0C114D10409F4CACEE6
:100A80000E940000C7CE1092B301F6CFE1E0809142
:100A9000C9018111E0E0E195F0E0EA54FE4F84895C
:100AA00080680E94AD0241E06C2F86EB91E00E94CD
:100AB0005A02E2CF6170A7CF1092B9011092B8012B
:100AC00086E291E09093B7018093B6018CE0809329
:100AD000BA018FEF8093BB018BE08093BC0185E06E
:100AE0008093BD0184E08093BE0183E08093BF01C9
:100AF00082E08093C0011092C1011092C201109255
:100B0000C3011092C4011092C50181E00E94B3029A
:100B10001092490110924D0110924C0110924E0119
:100B20008CE191E09093480180934701E3E6F1E086
:100B30001082148213821582369681E0EF39F8070D
:100B4000B9F784E091E09093AA018093A90180E035
:100B500091E09093AC018093AB0184E08093AD0170
:100B60008093AE0188E091E09093A8018093A70163
:100B70008AE090E09093B0018093AF0184EF91E020
:100B80009093B2018093B1011092B5011092B4011B
:100B90001092A3011092A4011092A5011092A60137
:100BA0001092B3010895EE0FFF1F0590F491E02D10
:100BB0000994F894FFCF1011121306070809313277
:100BC00033343536373839544A512A30234B0000F4
:100BD0000000DB01DF01E301000000005903E60132
:100BE0001402130248656C6C6F20576F726C64219D
:040BF000000D0A00EA
:107E0000112484B714BE81FFF0D085E080938100F7
:107E100082E08093C00088E18093C10086E0809377
:107E2000C20080E18093C4008EE0C9D0259A86E02C
:107E300020E33CEF91E0309385002093840096BBD3
:107E4000B09BFECF1D9AA8958150A9F7CC24DD24C4
:107E500088248394B5E0AB2EA1E19A2EF3E0BF2EE7
:107E6000A2D0813461F49FD0082FAFD0023811F036
:107E7000013811F484E001C083E08DD089C08234E0
:107E800011F484E103C0853419F485E0A6D080C0E4
:107E9000853579F488D0E82EFF2485D0082F10E0AE
:107EA000102F00270E291F29000F111F8ED06801E7
:107EB0006FC0863521F484E090D080E0DECF843638
:107EC00009F040C070D06FD0082F6DD080E0C81688
:107ED00080E7D80618F4F601B7BEE895C0E0D1E017
:107EE00062D089930C17E1F7F0E0CF16F0E7DF06D8
:107EF00018F0F601B7BEE89568D007B600FCFDCFD4
:107F0000A601A0E0B1E02C9130E011968C91119780
:107F100090E0982F8827822B932B1296FA010C0160
:107F200087BEE89511244E5F5F4FF1E0A038BF0790
:107F300051F7F601A7BEE89507B600FCFDCF97BE46
:107F4000E89526C08437B1F42ED02DD0F82E2BD052
:107F50003CD0F601EF2C8F010F5F1F4F84911BD097
:107F6000EA94F801C1F70894C11CD11CFA94CF0C13
:107F7000D11C0EC0853739F428D08EE10CD085E9AC
:107F80000AD08FE07ACF813511F488E018D01DD067
:107F900080E101D065CF982F8091C00085FFFCCF94
:107FA0009093C60008958091C00087FFFCCF809118
:107FB000C00084FD01C0A8958091C6000895E0E648
:107FC000F0E098E1908380830895EDDF803219F02E
:107FD00088E0F5DFFFCF84E1DECF1F93182FE3DFCA
:107FE0001150E9F7F2DF1F91089580E0E8DFEE27F6
:047FF000FF270994CA
:027FFE00040479
:00000001FF
