:100000000C945D000C9485000C9485000C94850084
:100010000C9485000C9485000C9485000C9485004C
:100020000C9485000C9485000C9485000C9485003C
:100030000C9485000C9485000C9485000C9485002C
:100040000C94BF010C9485000C9485000C948500E1
:100050000C9485000C9485000C9485000C9485000C
:100060000C9485000C94850000000008000201003B
:100070000003040700000000000000000000000072
:10008000250028002B0000000000240027002A0083
:10009000040404040404040402020202020203032E
:1000A0000303030301020408102040800102040836
:1000B00010200102040810205B0211241FBECFEFA4
:1000C000D8E0DEBFCDBF11E0A0E0B1E0E8E7F6E0A8
:1000D00002C005900D92AA31B107D9F721E0AAE13B
:1000E000B1E001C01D92AB33B207E1F710E0CDE5FE
:1000F000D0E004C02197FE010E943403CC35D10723
:10010000C9F70E9409020C943A030C94000090E095
:10011000FC01EC55FF4F249180579F4FFC018491C7
:10012000882399F090E0880F991FFC01EA57FF4F50
:10013000A591B491FC01E458FF4F859194918FB73C
:10014000F894EC91E22BEC938FBF089590E0FC01C2
:10015000E859FF4F2491FC01EC55FF4F3491FC010D
:10016000E057FF4FE491EE23C9F0222339F023300A
:1001700001F1A8F4213019F1223029F1F0E0EE0F5D
:10018000FF1FE458FF4FA591B4918FB7F894EC91FD
:10019000611126C030953E233C938FBF08952730D0
:1001A000A9F02830C9F0243049F7809180008F7D74
:1001B00003C0809180008F7780938000DFCF84B56B
:1001C0008F7784BDDBCF84B58F7DFBCF8091B0006E
:1001D0008F778093B000D2CF8091B0008F7DF9CF20
:1001E0003E2BDACFAF92BF92CF92DF92EF92FF9287
:1001F0000F931F93CF93DF936C017B018B01040F4F
:10020000151FEB015E01AE18BF08C017D10759F0EA
:100210006991D601ED91FC910190F081E02DC6012C
:100220000995892B79F7C501DF91CF911F910F9126
:10023000FF90EF90DF90CF90BF90AF90089508951A
:1002400090E080E00895CF93DF93EC0160E08E8131
:100250000E94A60061E08E810E94A60060E08E816F
:100260000E94A6008BE891E00197F1F7DF91CF9112
:100270000895CF92DF92EF92FF920F931F93CF9347
:10028000DF936C017C0187E0E80EF11CD0E0C0E058
:10029000062F10E0B8010C2E02C0759567950A94E0
:1002A000E2F76170F70181917F010E94A60021961B
:1002B000C430D10579F7C601DF91CF911F910F911D
:1002C000FF90EF90DF90CF900C942301CF92DF92BC
:1002D000EF92FF920F931F93CF93DF93EC01F62ED3
:1002E000642F8C810E94A6008D818F3F19F060E001
:1002F0000E94A6000F2D10E08F8584FF25C06E019F
:1003000087E0C80ED11CF12CE12CB8010E2C02C0E4
:10031000759567950A94E2F76170F60181916F0116
:100320000E94A600FFEFEF1AFF0A88E0E816F1042A
:1003300061F7CE01DF91CF911F910F91FF90EF9068
:10034000DF90CF900C942301B80184E075956795F8
:100350008A95E1F7CE010E9439016F2DCE01DF9120
:10036000CF911F910F91FF90EF90DF90CF900C9461
:10037000390141E00E94660181E090E008951F92FA
:100380000F920FB60F9211242F933F938F939F9349
:10039000AF93BF938091370190913801A0913901BB
:1003A000B0913A013091360123E0230F2D3758F5F3
:1003B0000196A11DB11D20933601809337019093C2
:1003C0003801A0933901B0933A01809132019091A4
:1003D0003301A0913401B09135010196A11DB11DE9
:1003E0008093320190933301A0933401B09335018F
:1003F000BF91AF919F918F913F912F910F900FBE21
:100400000F901F90189526E8230F0296A11DB11D8D
:10041000D2CF789484B5826084BD84B5816084BD78
:1004200085B5826085BD85B5816085BD80916E0092
:10043000816080936E0010928100809181008260C3
:100440008093810080918100816080938100809100
:1004500080008160809380008091B10084608093EF
:10046000B1008091B00081608093B00080917A00EB
:10047000846080937A0080917A00826080937A0011
:1004800080917A00816080937A0080917A00806800
:1004900080937A001092C1004CE050E06CE071E073
:1004A0008AE191E00E94F200C0E0D0E02097F1F3F1
:1004B0000E940000FBCFCF93DF9310921D0110929A
:1004C0001C0184E091E090931B0180931A018CE061
:1004D00080931E018FEF80931F018BE0809320019A
:1004E00085E08093210184E08093220183E0809362
:1004F000230182E0809324011092250110922601AD
:1005000010922701109228011092290181E0809316
:100510002D0110922E0180E480932F0180E18093C1
:10052000300180E5809331018CE00E94870080914A
:100530001F018F3F11F00E948700809120010E94CF
:100540008700CAE1D1E09E012A5131408091290102
:1005500084FD0AC084E090E02196281739073CF416
:100560008E810E948700EFCF88E090E0F5CF8BE38B
:100570009DE00197F1F760E080911E010E94A600C6
:1005800060E0809120010E94A60080911F018F3FB2
:1005900019F060E00E94A6006091290164FD45C049
:1005A00063E08AE191E00E943901CBE4D6E4CE0118
:1005B0000197F1F763E08AE191E00E943901219708
:1005C000F1F763E08AE191E00E94390183E592E06E
:1005D0000197F1F762E08AE191E00E9439016091B0
:1005E0002901606240E08AE191E00E94660184E0B6
:1005F00080932A0140E06CE08AE191E00E9466016C
:1006000040E061E08AE191E00E9466018BE39FE1B6
:100610000197F1F782E080932B0140E066E08AE1E8
:1006200091E0DF91CF910C946601606240E08AE135
:1006300091E00E9466018BE496E40197F1F76091E6
:100640002901606240E08AE191E00E94660183E551
:1006500092E00197F1F760912901606240E08AE140
:1006600091E00E946601BBCFEE0FFF1F0590F49151
:08067000E02D0994F894FFCF7E
:1006780000000000B901F20020011F0148656C6C00
:0A0688006F20576F726C64210000B0
:00000001FF
